:020000040800F2
:1000000000300020852F0008F12C0008F52C000896
:10001000F92C0008FD2C0008012D0008000000004C
:10002000000000000000000000000000052D000896
:10003000092D0008000000000D2D0008112D0008FA
:10004000D52F0008D52F0008D52F0008D52F000880
:10005000D52F0008D52F0008D52F0008D52F000870
:10006000D52F0008D52F0008D52F0008D52F000860
:10007000D52F0008D52F0008D52F0008D52F000850
:10008000D52F0008D52F0008D52F0008D52F000840
:10009000152D0008212D0008D52F0008D52F0008A8
:1000A000D52F0008D52F0008D52F0008D52F000820
:1000B000D52F0008D52F000800000000D52F00081C
:1000C000D52F00080000000000000000D52F000818
:1000D00000000000D52F0008D52F0008D52F0008FC
:1000E000D52F0008D52F00080000000000000000F8
:1000F0000000000000000000000000000000000000
:1001000000000000000000000000000000000000EF
:1001100000000000000000002D2D0008D52F000871
:1001200000000000000000000000000000000000CF
:1001300000000000000000000000000000000000BF
:10014000D52F0008D52F0008000000000000000097
:10015000000000000000000000000000000000009F
:10016000000000000000000000000000000000008F
:10017000000000000000000000000000000000007F
:0801800000000000D52F00086B
:1001900010B5054C237833B9044B13B10448AFF3C1
:1001A00000800123237010BD7000002000000000BB
:1001B000DC3E000808B5034B1BB103490348AFF30D
:1001C000008008BD0000000074000020DC3E000834
:1001D00001F0FF01102A2BDB10F0070F08D010F8F8
:1001E000013B013A8B422DD010F0070F42B3F6D1FC
:1001F000F0B441EA012141EA014122F007047FF015
:1002000000070023F0E80256083C85EA010586EA6B
:10021000010685FA47F5A3FA87F586FA47F6A5FAA7
:1002200087F68EB9EED1F0BC01F0FF0102F00702B3
:1002300032B110F8013B013A83EA010313B1F8D15E
:100240000020704701387047002D06BF354603383F
:10025000073815F0010F07D1013015F4807F02BF78
:10026000013015F4C03F0130F0BC0138704700BFC9
:1002700003685A004CBF43F0004323F00043184486
:10028000704700BF61B32DE9F84F01F1FF3A904686
:100290000646D146002707EB090404EBD47464102A
:1002A000E50071190846FFF7E3FFA245834605F113
:1002B0000800304409D0FFF7DBFFC34500F1FF30F1
:1002C00005D8404509D2671CE5E7C34505D9A742D3
:1002D00002D004F1FF39DEE700210846BDE8F88FBF
:1002E00008467047012807D0022807D0044B002891
:1002F0000CBF1846002070470248704702487047FC
:10030000E9090008ED090008F109000830B5244B9F
:1003100083B004468D1E7BB301A92846AFF300804D
:1003200020B301992A46FFF7ADFF0146F0B1FFF770
:100330009FFF4B68A064012B12D0002B01F1040039
:1003400020DBFFF795FF0023E06423650368002BA3
:100350001CDBFFF78DFF00232061184603B030BD82
:10036000002323610523184603B030BD0023236119
:100370000923184603B030BD0A490B48091AC910B1
:100380000191CFE70123E0642365DFE7C3F3036056
:10039000FFF7A8FF0028206114BF00230923DCE732
:1003A000000000006C410008744000080368DA0790
:1003B00010B5044606D49B0700F1480009D500F0AB
:1003C00051FC2368590709D51A070ED5DB0613D54A
:1003D00010BD00F03FFC23685907F5D404F1D000AC
:1003E00000F048FC23681A07F0D404F5A87000F068
:1003F00049FC2368DB06EBD404F5E870BDE8104047
:1004000000F084BC036803B103441846704700BF82
:1004100009207047704700BF70B504460D4608E0DC
:100420002B6C63612A4623692146012098470828DE
:1004300008D1296C2046FFF769FF06460028EFD057
:1004400003F000FD0728FBD13046296CFFF7E2FFDF
:10045000281D00F0F3FB00BF2DE9F0470C1D0546F9
:1004600092460FCCADF5727D03AE0FC60FCC0FC612
:100470000FCC0FC694E80F0002ACD5F80C80D5F86D
:10048000189086E80F0000232846216C2360FFF7B0
:100490003DFFBAF1000F074614BF0A2609267FB1B7
:1004A000A36B46F010018DE810022A466364012018
:1004B0002B46C04778BB38460DF5727DBDE8F08706
:1004C000236C6B614FF4F07221467AA803F02AFC8A
:1004D0002B697AAA294630469847889B82468DE840
:1004E0001002314663642A462B460120C04790B96A
:1004F0004FF4F0727AA9204603F014FCBAF1080F09
:1005000006D1216C2846FFF701FF09260746C6E7FA
:10051000BAF1070F05D0092738460DF5727DBDE801
:10052000F0873846216CFFF775FF03A800F086FBC3
:10053000406C7047F0B5CB6B0B640E1D0F46044644
:100540000FCEF9B001AD0FC50FCE0FC50FCE0FC541
:1005500096E80F004FF0FF3685E80F00009606E0A2
:1005600023696A46214698470828054608D110990C
:100570002046FFF7CBFE0028F2D0092079B0F0BD6D
:100580006846FFF713FF062DF7D139462046FFF7DF
:1005900043FF00BF30B4DD6BC160826119461D644A
:1005A000002230BC58E700BF70B5C66843690B64D1
:1005B00026B10122FFF750FF03F044FC03690A460D
:1005C00004460D46014602209847072807D0082810
:1005D00003D129462046FFF71FFF03F033FC3046C6
:1005E000296CFFF717FF281D00F028FBC2681AB11D
:1005F000CA6B0A6400222FE79CE700BF704700BF68
:10060000836813B1014601201847704700B50429DB
:1006100007D8DFE801F00309060909000BB90F2A22
:1006200005D902205DF804FB01205DF804FB00EB16
:10063000820218465368019A13605DF804FB00BFFC
:1006400010B584B0002303AC0A4600941946FFF7A6
:10065000DDFF039804B010BD00B5042907D8DFE81A
:1006600001F00309060909000BB90F2A05D9022078
:100670005DF804FB01205DF804FB019900EB8202A8
:100680000968516018465DF804FB00BF10B584B0DE
:1006900004AC002344F8042D0A4600941946FFF7E1
:1006A000DBFF04B010BD00BFF0B5D36B1364151DA4
:1006B00007460E460FCDADF50F7D17AC0FC40FCD1D
:1006C0000FC40FCD0FC495E80F004FF0FF3584E83D
:1006D0000F00169510E016A8FFF7D8FF314616A8B0
:1006E000B84716AA694678B9049B08209847052898
:1006F00004460AD0092807D026996846FFF706FE67
:100700006A460C210028E6D0092416A8FFF74EFE01
:1007100020460DF50F7DF0BD2DE9F04F0D46C96C5B
:100720008BB00C1D096807919146089400F0030BEB
:100730001E46002B60D10902032307918DF8256026
:100740008DF824302B6DBBF1020F08BFAC6B13F09A
:10075000010340D1019300F008030393D4F8008013
:10076000B8F1000F39D0022E43D0B4F8008067886A
:100770000434AB6C27F0010A0F2148469A44FFF776
:100780005FFF824533D828F001039A4450452CBFBF
:10079000002001207F0007F0020708F0010847EA67
:1007A0000807012F3ED035D3022F1CD1236823F038
:1007B00000420292BBF1000F76D128B103990029C3
:1007C0007ED0002A00F0A680002B77DB029B01334D
:1007D00004EB8304C2E700230193022E3EDDFFF702
:1007E00017FE002840D009200BB0BDE8F08F002094
:1007F000D0E767680834BCE7022BA3DC0B0CDAB245
:1008000009048DF82530022304EB820407918DF84A
:10081000243097E7BBF1000F02D0002840F0BD80E4
:1008200004349BE7BBF1000F25D1A8B194E80C007C
:10083000991C4FEAD272D6D005F1580101330691C6
:1008400000F0A380201DFFF7DDFD06AB0146284622
:10085000AFF30080002877D108347FE707A9484626
:1008600000F0EEFA0028BED1019B002B5CD10820DD
:100870000BB0BDE8F08F0D2148462F6AFFF7E0FE70
:100880008742E9D1AB6A9C42E6D12046FFF7F0FCF3
:100890000F2102464846FFF7F9FE48462A46002146
:1008A000FFF7F4FE07209FE70D2148462F6AFFF768
:1008B000C7FE874258D02368002B87DA043485E7C7
:1008C000029B3BB305F15803271DCDF810B0DDF8AE
:1008D0000C80DDF808A00596A3461C4602E0B24550
:1008E000B04616D038460694FFF78CFD06AB01469D
:1008F00000222846AFF3008008F1010604370028E3
:10090000EDD0029B059E43455C46DDF810B0D2D188
:1009100000E05C4648460D21FFF792FE069B2862E8
:10092000AC626B6206205FE70F214846FFF788FE46
:100930000E2102464846FFF7A9FE4846294A0F21E4
:10094000FFF7A4FE07204FE707460D214846FFF7B3
:1009500077FE022F28621DD12B46069A43F82C2FD2
:100960006B62AC6206203FE7AB6A9C42A3D10422D3
:100970000027A3180299A962EF622A636B632368B8
:10098000BB421DDB0123019320E748460D21FFF701
:1009900057FE2862069B6B62E3E72046FFF768FC80
:1009A00004340646AC632846AFF3008000283FF4C9
:1009B0001AAF484632460F21FFF768FE072013E7BB
:1009C0000846013004EB8000FFF752FC0F2102467D
:1009D0004846FFF75BFE48462A463946FFF756FE73
:1009E000072001E700000000002395E6012393E6BD
:1009F000022391E6F0B50446C5B004290DD8DFE81E
:100A000001F053030C310F00012B4FEA124695B24F
:100A100062D17219102A40F29B80022045B0F0BDCD
:100A2000002BFAD1102AF8D82368D80600F1C68026
:100A300022AE3046019200F073F9A06B019A0023B8
:100A4000012505FA03F1114203D0016846F823108D
:100A500004300133042BF4D1A063304600F056F982
:100A60000020DBE7032BD8D1150C97B2EB19102B24
:100A7000D3D823681E0700F1B58022AE304600F0BF
:100A800023F9ED00A36B4FB1043D711903EBC700CF
:100A900053F8042B41F8042F8342F9D13046A36365
:100AA00000F0F0F80020B9E7002BB6D1A56B97B2A3
:100AB000201D012606FA03F1394203F1010302D099
:100AC000296801600435102B00F10400F2D112F402
:100AD00000503BD1A563A1E7052B9ED17719202FAC
:100AE0009BD80F2E66D92F46002D3AD12A460027D3
:100AF000002AA06B72DD00EBC202014644A800EBA5
:100B0000C6008C3851F8045B40F8045F9142F9D17B
:100B1000084697B1102E324644A938BF102201EB87
:100B2000C202A2F5C4727900043A00EB810150F8C8
:100B3000045B42F8045F8842F9D1012B48D00F2EA4
:100B4000A16333D917B102A800F094F8002065E73B
:100B50000F2E3FF662AF00272268D10717D4002F6F
:100B600060D02268510745D4012B4DD00F2E06D8F6
:100B700022A8019300F07AF8019B002FB6D002A8BA
:100B8000019300F07BF8019BC6F11002B0E722F060
:100B90000101052B2160019320463BD022F0030286
:100BA00040F8482B00F05AF8019BD8E722A800F043
:100BB00059F8C7E7102FCED9103FCDE723F0100327
:100BC000236004F5E870019200F0AAF8019A2FE77B
:100BD0000431A16322A800F03DF8B7E7002F99D1B6
:100BE0000146AAE723F00803236004F5A87000F08B
:100BF0006BF842E7204622F0040240F8D02B019324
:100C000000F03CF8019BAFE722A8019300F026F822
:100C1000019BB9E741F0020140F8481B00F026F8BB
:100C2000019B9CE7012B03D00F2E3FF65FAF9FE7A0
:100C300022A8019300F012F8019B57E700F134015C
:100C400091E838009C46A6464CF8045D90E8FF0FFA
:100C5000E54600BD90EC210B704700BF80EC210BF6
:100C6000704700BF90EC200B704700BF80EC200B5A
:100C7000704700BFD0EC200B704700BFC0EC200BCA
:100C8000704700BFF0EC0201F0EC0211F0EC022121
:100C9000F0EC0231F0EC0241F0EC0251F0EC0261B8
:100CA000F0EC0271F0EC0281F0EC0291F0EC02A1A8
:100CB000F0EC02B1F0EC02C1F0EC02D1F0EC02E198
:100CC000F0EC02F1704700BFE0EC0201E0EC021131
:100CD000E0EC0221E0EC0231E0EC0241E0EC0251F8
:100CE000E0EC0261E0EC0271E0EC0281E0EC0291E8
:100CF000E0EC02A1E0EC02B1E0EC02C1E0EC02D1D8
:100D0000E0EC02E1E0EC02F1704700BFB0FC0181D1
:100D1000B0FC0191B0FC01A1B0FC01B1704700BF73
:100D2000A0FC0181A0FC0191A0FC01A1A0FC01B1EB
:100D3000704700BFEC4600B52DE900502DE9FF1FBC
:100D40004FF000032DE90C0001A9FFF7F3FBDDF8DC
:100D500040E012B0704700BFEC4600B52DE90050EE
:100D60002DE9FF1F4FF000032DE90C0001A9FFF74B
:100D70001BFCDDF840E012B0704700BFEC4600B548
:100D80002DE900502DE9FF1F4FF000032DE90C0065
:100D900001A9FFF72BFCDDF840E012B0704700BF5F
:100DA000EC4600B52DE900502DE9FF1F4FF0000380
:100DB0002DE90C0001ABFFF7EDFBDDF840E012B0D0
:100DC000704700BFEC4600B52DE900502DE9FF1F2C
:100DD0004FF000032DE90C0001AAFFF765FCDDF8D8
:100DE00040E012B0704700BF027A1AB9437A43B9A3
:100DF000B02070470368013A02721A020260180EAE
:100E000070474268013B10B4437213680321141DFC
:100E100001721A02446002605DF8044B180E7047BC
:100E200000B585B003AA0023009219460C22FFF7F3
:100E3000EDFB039805B05DF804FB00BFF0E700BFD1
:100E40002DE9F043064685B00F464FF000083846BE
:100E5000FFF7CAFFB028044623D0050627D4002395
:100E60000DF10C09194685000D22CDF80090304691
:100E7000FFF7CCFBEDB2039BCDF80090600605F1C7
:100E800004054CBF5D1BED18002319460D223046AA
:100E90000395FFF7E1FB3846FFF7A6FFB0280446AD
:100EA000DBD1B8F1000F00F0958000201CE000F0CD
:100EB000F003802B5DD0902B19D0A02B2CD0B02B21
:100EC0003FD0C02B6CD000F0F803D02B0BD100F03A
:100ED0000702013242F40022052301213046FFF7C8
:100EE00089FD0028B3D0092005B0BDE8F08300F0EB
:100EF0000D030D2BF7D003AD002300F00F021946B0
:100F000000953046FFF782FB0023009519460D221D
:100F10003046FFF7A1FB9AE7C24302F007034FF404
:100F20007F621A41010702F47F624FF0000348BF5D
:100F300042F4804219463046FFF75CFD0028D2D1CA
:100F400085E7B12857D0B22868D0B32800F0958043
:100F500000F0FC03B42BC6D000F0070201320123DD
:100F600042F4002219463046FFF744FD0028BAD16A
:100F70006DE73846FFF738FF24020443B4F5004F0D
:100F8000B1D024010023A2B219463046FFF732FD4A
:100F90000028A8D114F4004F18BF4FF0010856E7FD
:100FA000C6287DD0C72800F0868000F0F803C02B4B
:100FB00000F09480C82800F09F80C92893D138465B
:100FC000FFF712FF020300F00F0002F4702201305D
:100FD000024381E703AC43460E224146009430466B
:100FE000FFF714FB0094304643460F224146FFF7BB
:100FF00033FB404678E73846FFF7F6FE00283FF41B
:1010000072AF10F0F0037FF46EAF0246194630461F
:10101000FFF7F0FC00287FF466AF18E700230DF11E
:101020000C090D221946CDF800903046FFF7EEFA74
:101030003846FFF7D9FE02064FF002040CD5039B99
:1010400000F07F00A040034438460393FFF7CCFE36
:10105000030604F10704F2D4039BCDF8009000F0DE
:101060007F02A24003F501740023144419460D22A7
:1010700030460394FFF7F0FAE9E63846FFF7B4FE8E
:10108000010300F00F0001F47021421C01230A4308
:1010900030461946FFF7AEFC00287FF424AFD6E6B1
:1010A0003846FFF7A1FE010300F00F0001F47021A4
:1010B000421C0323EBE73846FFF796FE00283FF477
:1010C00012AF10F0F0037FF40EAF02460421304659
:1010D000FFF790FC00287FF406AFB8E600F00F029F
:1010E0000132032342F4202219463046FFF782FCE6
:1010F00000287FF4F8AEAAE63846FFF775FE00F048
:10110000F00200F00F031032013343EA0232E3E64B
:1011100010B5C36C84B05A6803208DF80C00DC79DC
:101120008DF80D4012020833084601A9019202937E
:10113000FFF786FE04B010BD08B5FFF77FFE806C98
:1011400008BD00BF08B5FFF779FEC06CC37900EB9E
:101150008300083008BD00BF08B502F073FE00BF71
:1011600008B5FFF7F9FF00BF38B50E4A0E4B1278ED
:101170001B6805464FF47A70B0FBF2F0B3FBF0F059
:1011800000F0D4FA08B90F2D01D9012038BD04466A
:10119000024629464FF0FF3000F086FA034B204606
:1011A0001D6038BD00000020080000200400002061
:1011B000074A08B5136843F010031360032000F0DA
:1011C00061FA0020FFF7D0FF01F07AFD002008BD92
:1011D00000200240034A044B11681B780B44136043
:1011E000704700BFCC00002000000020014B1868B1
:1011F000704700BFCC00002000287CD090F8203041
:1012000070B50446002B73D02268136823F00203E4
:101210001360FFF7EBFF054604E0FFF7E7FF401B15
:101220000A285CD823685A689107F6D41A6842F0F5
:1012300001021A60FFF7DAFF054604E0FFF7D6FF68
:10124000401B0A284BD823685A68D207F6D5227E5D
:10125000012A1A680CBF42F0800222F080021A6054
:10126000627E012A1A680CBF42F0400222F040025E
:101270001A60A27E012A1A680CBF42F0200222F0F6
:1012800020021A60E27E012A1A680CBF22F01002C6
:1012900042F010021A60227F012A1A680CBF42F045
:1012A000080222F008021A60627F012A1A680CBF45
:1012B00042F0040222F004021A60A268E66825697E
:1012C0006069616832432A43024301390A430125B8
:1012D0000021DA610846616284F8205070BD636ABB
:1012E000052243F400336362012084F8202070BD9E
:1012F00001F0EAFA88E70120704700BF2DE9F041CC
:1013000090F82040013C012C06D9436A43F4802325
:1013100043620120BDE8F081056800295AD02C699C
:10132000A4075AD00C012E19D6F8B07107F00407A3
:101330009760002F5FD1D6F8B0717F0D1760D6F897
:10134000B0C1D6F8B4E1D6F8B471D6F8B46125448A
:10135000CCF3400CD5F8B881C2F80CC00EF00F05E4
:10136000C7F30727360C15619761566183F8008033
:1013700002682244D2F8B821120A5A700268224444
:10138000D2F8B821120C9A7002682244D2F8B8211F
:10139000120EDA7002682244D2F8BC211A71026877
:1013A0002244D2F8BC21120A5A7102682244D2F8AF
:1013B000BC21120C9A7102681444D4F8BC21120E9C
:1013C000DA71026881B9D36843F020030846D3601C
:1013D000BDE8F081EC68A607A4D1436A43F400138A
:1013E00043620120BDE8F081136943F020031361DB
:1013F0000020BDE8F081D6F8B071FF0857609EE785
:10140000704700BF704700BF704700BF704700BF04
:10141000704700BF704700BF704700BF704700BFF4
:10142000704700BF704700BF704700BF704700BFE4
:101430002DE9F84F03685C69D3F804809F68D3F8FE
:101440000CB0D3F81090D3F818A014F0010506469C
:1014500025D017F0010540F09F804FF480414FF4F4
:101460000052F8050DD533684FF480709860BB05C5
:1014700000F1CA80780500F1DA803B0540F1EB808D
:101480000D46F8030BD533684FF48032B9039A60E8
:1014900000F1B6807A0340F1CC8045F4004527077F
:1014A00002D51BF0100F71D1600703D51BF0080F98
:1014B00040F08280A10704D53368DB689A0740F0CA
:1014C0009080630602D519F0100F59D1A70603D5F5
:1014D00019F0080F40F08980E00604D533681B69D5
:1014E000990740F08980A20302D518F0100F6AD145
:1014F000E30302D518F0080F6CD1270405D518F0C6
:10150000040F0BD1336804225A602DB1736A1D4356
:1015100075623046FFF78AFFBDE8F88FE00504D515
:101520001AF0010F18BF45F00105A10504D51AF006
:10153000020F18BF45F00205620504D51AF0040F2A
:1015400018BF45F004052305DCD51AF0700AD9D080
:10155000BAF1300F00F08D8070D9BAF1500F00F061
:101560008580BAF1600F00F08780BAF1400F01D199
:1015700045F0400533689A6922F070029A61C2E72B
:101580003368102245F480651A619FE733681022A2
:1015900045F40075DA6087E701229A60BB0737D40B
:1015A0007D073DD417F0080559D04FF4A0414FF402
:1015B00040524FF4805554E733680822DA603046D1
:1015C000FFF72AFF76E7336810225A603046FFF7AC
:1015D00029FF8DE7336808225A603046FFF724FF61
:1015E0008BE7304601F0AEF86BE7336808221A61EA
:1015F0003046FFF715FF6FE73046FFF70FFF72E742
:101600003046FFF701FF4AE73046FFF7FBFE38E7B9
:10161000FFF7F6FE00254FF480414FF4005220E71B
:101620004FF490414FF420524FF4006519E71546EE
:1016300027E73B030BD545F4803530E7BAF1100FAF
:101640001DD0BAF1200F95D145F0100592E7304634
:10165000FFF7E0FE23E73046FFF7DAFE11E7FFF77A
:10166000D5FE4FF480414FF40052FAE645F0800574
:1016700080E745F020057DE745F480757AE745F081
:10168000080577E7074AD3684FF6FF010B400002D1
:1016900043F0BF6300F4E06043F400330343D360DE
:1016A000704700BF00ED00E0184B70B4DC68C4F375
:1016B0000224C4F10706042E04F1040328BF042603
:1016C000062B17D9033C0125A540013D2A400123E3
:1016D000B340013B1940A140002841EA02010CDB64
:1016E00000F1604000F561400901C9B280F80013C3
:1016F00070BC704700221446E9E7054B00F00F006C
:1017000009010344C9B2197670BC704700ED00E0CE
:10171000FCEC00E000F01F0101234009024A8B406D
:1017200042F82030704700BF00E100E00138B0F11E
:10173000807F0ED2084B10B4084C5860F02084F81B
:1017400023000022072110469A6019605DF8044BBF
:1017500070470120704700BF10E000E000ED00E09E
:101760008C460968002900F0D9802DE9F04FDFF898
:10177000C0E183B000254FF0010879E04FEA450948
:101780000323D0F800B003FA09F3DB4304F00306A7
:101790000BEA030B06FA09F60AF1FF3A46EA0B06D2
:1017A000BAF1010F066040F29880C668DCF80820A4
:1017B000334002FA09F21A43E300C26054D5584B91
:1017C000574A9B6943F001039361936925F003062F
:1017D00006F1804603F0010306F58036019305F01B
:1017E0000303019AB2689B004FF00F0909FA03F94D
:1017F000B0F1904F22EA090A00F08680494A9042EF
:1018000000F08480484A904200F08380474A90422A
:101810000BBF4FF00309052209FA03F302FA03F3A1
:1018200043EA0A03B360DEF80030FA43E60354BF2C
:1018300013403B43CEF80030DEF80430A60354BF1B
:1018400013403B43CEF80430DEF80830E60254BFC4
:1018500013403B43CEF80830DEF80C30A40254BFEE
:1018600013403B43CEF80C30013531FA05F348D034
:1018700008FA05F212EA0107F6D0DCF8044024F079
:10188000100ABAF1020F7FF479AF4FEAD50900EBE5
:10189000890905F00703D9F820609B004FF00F0A73
:1018A0000AFA03FB26EA0B0ADCF8106006FA03F3D7
:1018B00043EA0A03C9F820304FEA45090323D0F868
:1018C00000A003FA09F3DB4304F0030603EA0A0A63
:1018D00006FA09F646EA0A060660866806EA030A78
:1018E000DCF80C6006FA09F646EA0A068660D0F8CB
:1018F00004A0C4F300162AEA0202AE401643466072
:1019000053E703B0BDE8F08F002389E708FA03F33B
:1019100086E74FF0020909FA03F381E7704700BF39
:10192000001002400004004800080048000C004875
:10193000000401400AB9816270478161704700BFAD
:101940004369594041617047002800F0CB822DE97E
:10195000F0430368D90783B0044643D5B7494A68C2
:1019600002F00C02042A00F0B0814A6802F00C0276
:10197000082A00F0A6816368B3F5803F00F0188262
:10198000002B00F06181B3F5A02F00F09E82AB4BDD
:101990001A6822F480321A601A6822F480221A60CF
:1019A000A64DA268EB6A23F00F031343EB62FFF727
:1019B0001DFC4FF400380746012605E0FFF716FC32
:1019C000C01B642800F2798198FAA8F32A6898FA73
:1019D000A8F3B3FA83F303F01F0306FA03F31342E9
:1019E000ECD023689F0742D5944A516811F00C0F40
:1019F00000F0C980516801F00C01082900F0BF8097
:101A00002269002A00F0AE81012292FAA2F3B3FA11
:101A100083F303F1845303F584139B0016461A6085
:101A2000FFF7E4FB4FF002080746844D05E0FFF79F
:101A3000DDFBC01B022800F2408198FAA8F32A6857
:101A400098FAA8F3B3FA83F303F01F0306FA03F33B
:101A50001342ECD02968F82292FAA2F26369B2FA32
:101A600082F221F0F80193400B432B6023681D079D
:101A700021D458074DD5714BDA69D10040F1C180AE
:101A80004FF000086E4D2B68DA0540F10681E368DF
:101A9000012B00F09381002B00F02E81052B674B6A
:101AA0001A6A00F0B58122F001021A621A6A22F065
:101AB00004021A6287E1A269002A7BD0012292FA0D
:101AC000A2F1604B5D4EB1FA81F10B449B001546CB
:101AD0001A60FFF78BFB4FF00208074605E0FFF79F
:101AE00085FBC01B022800F2E88098FAA8F398FA58
:101AF000A8F398FAA8F3726A98FAA8F3B3FA83F3F2
:101B000003F01F0305FA03F31342E8D023685807D4
:101B1000B1D4E3697BB3494D6A6802F00C02082A2C
:101B200044D0022B4FF0807300F07A8193FAA3F334
:101B3000B3FA83F303F1845303F584139B0000226B
:101B40001A60FFF753FB4FF000740746012605E0CB
:101B5000FFF74CFBC01B022800F2AF8094FAA4F3FD
:101B60002A6894FAA4F3B3FA83F303F01F0306FA86
:101B700003F31342ECD1002003B0BDE8F0835268B8
:101B8000D6033FF53DAF022292FAA2F12B49086835
:101B900092FAA2F2B2FA82F202F01F02012101FAD5
:101BA00002F2024239D022698A4236D0012003B0C3
:101BB000BDE8F083012595FAA5F1224B1F4EB1FA3D
:101BC00081F10B449B004FF002081A60FFF70EFBF7
:101BD000074604E0FFF70AFBC01B02286DD898FAFD
:101BE000A8F398FAA8F398FAA8F3726A98FAA8F3F7
:101BF000B3FA83F303F01F0305FA03F31342E9D1A9
:101C000084E7DA6942F08052DA61DB6903F08053DD
:101C10000193019B4FF0010834E7084DF821286833
:101C200091FAA1F16269B1FA81F120F0F8008A40DD
:101C300002432A601D077FF51CAF3CE700100240FD
:101C40000070004020819010A74D2B6823F4803352
:101C50002B602B6823F480232B60EB6AA26823F0AF
:101C60000F031343EB62FFF7C1FA4FF40038074646
:101C7000012604E0FFF7BAFAC01B64281DD898FAC1
:101C8000A8F32A6898FAA8F3B3FA83F303F01F03C2
:101C900006FA03F31342EDD1A3E62B6843F48073F5
:101CA0002B60FFF7A3FA06462B68DB053FF5EFAE86
:101CB000FFF79CFA801B6428F6D9032003B0BDE827
:101CC000F0834A68D2037FF556AE4FF4003292FAA1
:101CD000A2F18549086892FAA2F2B2FA82F202F001
:101CE0001F02012101FA02F202423FF47BAE626858
:101CF000002A7FF477AE59E77B4D2B6A23F001036E
:101D00002B622B6A23F004032B62FFF76FFA4FF06C
:101D100002090746012613E099FAA9F36A6A99FABB
:101D2000A9F3B3FA83F303F01F0306FA03F3134294
:101D30000ED0FFF75BFA41F28833C01B9842BCD843
:101D400099FAA9F399FAA9F3002BE5D02A6AE6E7F4
:101D5000B8F1000F3FF4DDAE634AD36923F080533E
:101D6000D361D6E6012595FAA5F3B3FA83F303F11F
:101D7000845303F584139B004FF002081A60FFF7A9
:101D800035FA594E074604E0FFF730FAC01B022827
:101D900093D898FAA8F3326898FAA8F3B3FA83F3C1
:101DA00003F01F0305FA03F31342EDD123685EE647
:101DB0004D4A136843F480331360F1E54A4A136ACD
:101DC00043F001031362FFF711FA4FF002090746CF
:101DD000454E012514E099FAA9F3726A99FAA9F31C
:101DE000B3FA83F303F01F0305FA03F31342AFD1F1
:101DF000FFF7FCF941F28833C01B98423FF65DAF14
:101E000099FAA9F399FAA9F3002BE4D0326AE5E72D
:101E100042F004021A621A6A42F001021A62D2E720
:101E200093FAA3F3B3FA83F303F1845303F5841312
:101E30009B0000221A60FFF7D9F94FF0007807469F
:101E4000012605E0FFF7D2F9C01B02283FF635AFA7
:101E500098FAA8F32A6898FAA8F3B3FA83F303F080
:101E60001F0306FA03F31342ECD16A68636A216A1E
:101E700022F474120B4313436B604FF0807393FA98
:101E8000A3F3B3FA83F303F1845303F584139B00A4
:101E90004FF000741E60FFF7A9F9134E07460125A5
:101EA00005E0FFF7A3F9C01B02283FF606AF94FA3E
:101EB000A4F3326894FAA4F3B3FA83F303F01F0394
:101EC00005FA03F31342ECD055E603F18043A3F582
:101ED0003C331A6842F480221A601A6842F4803255
:101EE0001A605DE5012070470010024078B1654A34
:101EF000136803F007038B420BD2136823F0070328
:101F00000B431360136803F00703994201D00120CB
:101F1000704703682DE9F0419F0706D55A4C856844
:101F2000626822F0F0022A436260DE0704460D4632
:101F300030D54268012A00F09380022A0CBF4FF08E
:101F40000073022393FAA3F14F49086893FAA3F3AD
:101F5000B3FA83F303F01F03012101FA03F30342F1
:101F600028D0494E736823F0030313437360FFF7CF
:101F70003DF941F28837804605E0FFF737F9A0EBDD
:101F80000800B84269D87368626803F00C03B3EBC9
:101F9000820FF2D13B4A136803F007039D420CD233
:101FA000136823F007032B431360136803F0070340
:101FB0009D4202D00120BDE8F0812368580706D574
:101FC0003149E0684A6822F4E06202434A60190736
:101FD00007D52D4A2169536823F4605343EAC103AE
:101FE0005360294B5A6802F00C01082916D0274982
:101FF000254BF0225B6892FAA2F2B2FA82F203F069
:10200000F003D3402248234AC35C002021FA03F3A3
:102010001360FFF7A9F80020BDE8F0814FF47011BC
:1020200091FAA1F1B1FA81F102F47010C8401A4C92
:10203000D96A235C0F2090FAA0F0B0FA80F001F08A
:102040000F01C1401548D203405C4ABF0F491449F3
:10205000B1FBF0F101FB03F1CAE70320BDE8F08119
:102060004FF4003393FAA3F10749096893FAA3F3F5
:10207000B3FA83F303F01F0302FA03F30B427FF476
:1020800070AF97E7002002400010024000127A0073
:10209000883F000808000020F43E0008043F0008C4
:1020A00000093D00144A536803F00C01082921D1AE
:1020B0004FF4701191FAA1F103F47010B1FA81F1AB
:1020C00020FA01F10D48D26A405C0F2191FAA1F18A
:1020D000DB03B1FA81F102F00F024CBF084B094B50
:1020E00022FA01F208498A5C48BFB3FBF2F303FB12
:1020F00000F070470248704700100240F43E0008AC
:1021000000127A0000093D00043F0008084B4FF41C
:10211000E0625B6892FAA2F2B2FA82F203F4E06340
:10212000D3400449044ACB5C1068D840704700BFD4
:1021300000100240983F000808000020084B4FF4B0
:1021400060525B6892FAA2F2B2FA82F203F4605330
:10215000D3400449044ACB5C1068D840704700BFA4
:1021600000100240983F000808000020002866D0B8
:10217000F8B590F83D30044603F0FF02002B39D04B
:1021800023683049022284F83D208B421A684FD0E0
:10219000B3F1804F33D0A1F594318B422FD001F5AC
:1021A0009E318B4216D001F580618B4212D001F531
:1021B00080618B420ED0A569E068616822F08002E0
:1021C0002A431A60D862996201225A61002084F879
:1021D0003D20F8BD2069A16922F44072024322F03B
:1021E00080020A431A60E268DA6262689A6262698F
:1021F0001A63E9E780F83C2000F050FEC0E7A668CB
:102200002069A169E768656822F07002324322F410
:102210004072024322F080020A431A600A4ADF62D7
:1022200093429D62E3D002F580629342CCD1DEE717
:10223000A5682069A16922F070022A43CCE7012039
:10224000704700BF002C0140004401400368DA6879
:1022500042F00102DA601A6842F001021A600020BE
:10226000704700BF704700BF704700BF704700BF96
:10227000704700BF03681A69910710B5044602D57C
:10228000DA68920765D41A69520702D5DA685007EE
:102290004CD41A69110702D5DA68120734D41A69C6
:1022A000D00602D5DA68D1061ED41A69D20702D543
:1022B000DA68D0076BD41A69110602D5DA681206FB
:1022C0006DD41A69D00502D5DA6811066FD41A697F
:1022D000520602D5DA68500651D41A69910602D521
:1022E000DA68920643D410BD6FF010021A61DB6900
:1022F000082213F4407F227720466CD0FFF7B4FF0A
:10230000002223682277D0E76FF008021A61DB69A8
:1023100004229B07227720465AD1FFF7A3FF2046CD
:10232000FFF7A4FF002223682277B8E76FF00402CA
:102330001A619B69022213F4407F2277204644D120
:10234000FFF790FF2046FFF791FF002223682277D6
:102350009FE76FF002021A619B69012299070277D9
:102360002DD0FFF781FF0022236822778BE76FF0E3
:10237000200220461A61BDE8104000F059B86FF005
:1023800040021A612046FFF773FF2368A5E76FF04C
:1023900001021A61204600F04BFA23688BE76FF0C8
:1023A00080021A61204600F045F8236889E76FF43F
:1023B00080721A61204600F03FF8236887E7FFF734
:1023C00051FF2046FFF752FFCDE7FFF74DFFBCE777
:1023D000FFF74AFFA6E7FFF745FF2046FFF746FF56
:1023E0008EE700BF90F83C30012B16D0026870B425
:1023F0000E4D53689468AA4212D00E688D6823F07F
:10240000700324F08001334300242943536091601A
:1024100080F83C40204670BC704702231846704745
:102420004D6823F470032B43E7E700BF002C014005
:10243000704700BF704700BF704700BF436ADA07AC
:1024400010B406D50168846A4A6822F40032224337
:102450004A609C0706D50168C46A4A6822F4803243
:1024600022434A60590706D50168046B4A6822F482
:10247000802222434A601A0706D50168446B4A68E5
:1024800022F4004222434A60DC0606D50168846BD0
:102490008A6822F4805222438A60990606D5016830
:1024A000C46B8A6822F4005222438A605A0609D516
:1024B0000168046C4A6822F480122243B4F5801F3C
:1024C0004A600BD01B0606D50268816C536823F462
:1024D00000230B4353605DF8044B70474A68446C1B
:1024E00022F4C00222434A60ECE700BF002800F05B
:1024F000AF80F8B590F86930044603F0FF02002B76
:1025000031D0256827696669E169894A242384F8FE
:1025100069302868A36820F00100286028683B43E0
:10252000334302400B4313432B606A68E668A36998
:10253000276A804822F4405232436A60AA683B43CB
:1025400022F4306213438542AB606FD07A4B9D42D8
:102550000ED003F580639D420AD0B1F5004F00F024
:10256000A2800120F8BD80F8682000F0D5FCC8E703
:10257000B1F5004F00F09480FFF7C8FD626800EBF2
:102580005203B3FBF2F39BB2EB60636A002B49D1B9
:1025900023685A6822F490425A609A6822F02A020C
:1025A0009A601A68002142F001021A60E166FEF7A3
:1025B0001DFE23681A68110706460BD41A685207D5
:1025C00024D42023002084F8693084F8680084F83B
:1025D0006A30F8BDDD6915F40015EFD1FEF706FE8F
:1025E000801BB0F1007F2368F4D31A6822F4D07204
:1025F0001A609A68202122F001029A60032084F870
:10260000691084F8685084F86A10F8BDDD6915F423
:102610008005D6D1FEF7EAFD801BB0F1007F23686C
:10262000F4D3E2E72046FFF709FFB1E7434B444A02
:102630001B6B03F00303B1F5004FD35C3BD1082BB8
:1026400034D8DFE803F02D2A203315333333070065
:10265000012070476268530803F58033B3FBF2F33F
:102660009BB223F00F02C3F342031343EB608CE7EA
:10267000FFF718FD62682568530803EB4003B3FBBE
:10268000F2F39BB2EDE76268530803F5740303F5B8
:102690001053B3FBF2F39BB2E3E7FFF74FFDE9E71B
:1026A000FFF734FDE6E70023EB605AE7214B0022F9
:1026B000DA600120F8BD082B3FF653AF01A252F8B3
:1026C00023F000BF79250008E92600081927000833
:1026D0006325000813270008632500086325000808
:1026E00063250008FF260008FFF728FD62681149EE
:1026F00000EB5203B3FBF2F39BB2CB6045E7626899
:102700000C49530803F50043B3FBF2F39BB2CB60D3
:102710003BE7FFF7C7FCE9E762680649530803F5A2
:10272000F40303F59053B3FBF2F39BB2CB602CE7B9
:10273000F369FFEF00380140004400400010024000
:10274000143F000810B5084C0021234604F108028C
:10275000FEF7D4FD012384F8243020214FF090406F
:10276000BDE81040FFF7ECB88C0000202DE9F041E7
:102770000446284D806AE36ADFF8B080264F226164
:102780006160A060E36094F82030002B40D194F8A1
:102790002120606A214E2B68996899689B68002AFD
:1027A000F9D0431E052BF6D8DFE803F02C26201ABB
:1027B0000D03404600F042FC94F8203053B994F8E1
:1027C0002120606AE7E7384600F038FC94F82030B2
:1027D000002BF4D010214FF09040FFF7B1F8D2E772
:1027E000304600F02BFC94F82030E7E70C4800F06E
:1027F00025FC94F82030E1E70A4800F01FFC94F82B
:102800002030DBE7084800F019FC94F82030D5E7C9
:10281000BDE8F081D0000020683F0008543F000868
:10282000483F00083C3F0008303F00087C3F00085C
:1028300008B50268064B9A4200D008BD054B1868DF
:1028400000F5F47000F00AF8034B01221A7008BD7D
:1028500000100040BC000020B400002008B5002398
:1028600040681A464FF48861FFF780FF00B908BD41
:1028700008214FF09040BDE80840FFF761B800BF65
:102880000F4B104A70B501211A60042600224FF048
:1028900080754FF4C02418465E60DD601C61597677
:1028A0009A605A611A769A76DA761A775A77FEF72C
:1028B000A3FC00B970BDBDE8704000F0FFB900BFD7
:1028C000D000002000640040F0B502681F4B89B0C2
:1028D00000249A420494039405940694079401D02A
:1028E00009B0F0BD03F5D63303A9DA6942F00072EE
:1028F000DA61DA6902F000720192019A5A6942F4CF
:1029000000325A615B6903F4003302930322092306
:102910004FF4C05602254FF0904007930692029F55
:1029200003960495FEF71CFF224621461420FEF76D
:10293000BBFE1420FEF7EEFE224621461520FEF7D0
:10294000B3FE1520FEF7E6FE09B0F0BD00640040BE
:1029500070B588B00024214B049403940594069428
:1029600007945A691E4D42F480025A615A6902F472
:1029700080020092009A5A6942F400325A615A6900
:1029800002F400320192019A5A6942F480225A619B
:102990005B6903F480230293224638214FF0904074
:1029A000029BFEF7C7FF224628460821FEF7C2FF1A
:1029B000012603A938234FF0904003930594069411
:1029C0000496FEF7CDFE082303A928460496059435
:1029D00006940393FEF7C4FE08B070BD00100240D9
:1029E0000004004810B590B006A82822002100F08D
:1029F0001DFB002401220221102306A806910A9241
:102A00000B9302940194039404940594FEF79CFFA5
:102A10000F2301A821460294039404940594019382
:102A2000FFF764FA10B010BD2DE9F0472DED048BCF
:102A3000ADF51C7DFEF7BCFB0124FFF7D3FF032798
:102A4000FFF786FF0726FFF71BFF082500F046FA71
:102A500000F0FEF9002318AA042102204FF0050C13
:102A60004FF0060E9FED8F7A8DF89440CDF890D000
:102A7000CDF898D0CDF8A0D0CDF8A8D08DF82030E2
:102A80008DF821308DF8223009930B938DF850305A
:102A90008DF851308DF8523015938DF880308DF8C7
:102AA00081308DF8823021932293239306930793EC
:102AB0000A9116918DF8AC101293139317908DF81C
:102AC0009C001E931F938DF8A470CDF8B0D0ADF884
:102AD000DC408DF8B4C0ADF81CC18DF8BCE0ADF899
:102AE0002CE18DF8C4608DF8CC50349238923C9231
:102AF0004092449248924C92CDF8B8D0CDF8C0D0D4
:102B0000CDF8C8D0ADF8EC00ADF8FC70ADF80C1104
:102B10003593369339933A933D933E934193429341
:102B20004593469349934A934D93ADF8ACE1DFF852
:102B300080E1DFF880815092ADF89CC10CAADFF8EB
:102B40007891DFED598AADF83C614FF0700A4FF48F
:102B5000006CADF84C51ADF85C414E93CDF850D1BE
:102B6000CDF860D1ADF86C01CDF870D15D93ADF8C2
:102B70007C71CDF880D16193ADF88C11CDF890D1F6
:102B80006593CDF8A0D16993CDF8B0D16D935E93E4
:102B9000629366936A9351935293559356935993C4
:102BA0005A93F0EE477A6E937593ADF8BC61ADF829
:102BB000CC51ADF83442CDF8C0D17193CDF8D731B6
:102BC00078938DF8E431CDF8E8D18DF818328DF88E
:102BD00019328A938B938E93ADF84402CDF8DCA121
:102BE0007293CDF8F091CDF8F4C174927B928C92EF
:102BF0009092CDF8F881CDF8FC818DED807A8DED45
:102C0000817A8DED877A8DED887A8DED897A8DEDDB
:102C10008F7A1E4692931C464FF6FF75ADF854729C
:102C20008DED937A949296938DED977A9892ADF874
:102C300064129A938DED9B7ACEF800D0F4EE687A08
:102C4000F1EE10FA26D00136B6B207EE906AF8EE31
:102C5000679A0024B7EE009A07EE904AB8EE678AAA
:102C6000FFF754FA38EE098A07EE900A28EE298A0F
:102C7000B8EE677A631CC8EE077AF4EE687AF1EE74
:102C800010FADBD09CB2AC42E6D1F4EE687AF1EEF9
:102C900010FAD8D1054B013E18465E60DC60FFF7A4
:102CA000D5FAFEE7000000000BD7233CF800002017
:102CB000BC000020B81E853E9EEF273D704700BF38
:102CC0000A4B9A6942F001029A619A6982B002F055
:102CD00001020092009ADA6942F08052DA61DB69FF
:102CE00003F080530193019B02B070470010024033
:102CF000704700BFFEE700BFFEE700BFFEE700BF72
:102D0000FEE700BF704700BF704700BF704700BFBD
:102D1000FEF760BA0148FEF78BBB00BFD000002071
:102D20000148FEF785BB00BFD00000200148FFF737
:102D3000A1BA00BFF80000200120704708B500F0DC
:102D40004BF9162303604FF0FF3008BD08B500F0C3
:102D500043F916230360FEE770B5161E07DD0C4627
:102D60008D19AFF3008004F8010BA542F9D130466C
:102D700070BD00BF70B5161E07DD0C468D1914F826
:102D8000010BAFF30080AC42F9D1304670BD00BFFB
:102D90000A4A08B5136873B118446946884202D8D4
:102DA0001060184608BD00F017F90C2303604FF0BF
:102DB000FF33184608BD024B1360EDE7C00000204A
:102DC000AC0100204FF0FF30704700BF4FF40053BC
:102DD0004B600020704700BF012070470020704703
:102DE0001749184B184A194810B4D1F8884044F4D0
:102DF0007004C1F888401C6844F001041C605C68E1
:102E000022405A601A6822F0847222F480321A60DA
:102E10001A6822F480221A605A6822F4FE025A606C
:102E2000DA6A22F00F02DA621A6B002410404FF0C7
:102E3000006218639C608A605DF8044B704700BFB5
:102E400000ED00E0001002400CC07FF8CCFC00FF59
:102E500000B5104A104B136085B000231046536034
:102E600001939360D360936102930393FFF77EF91C
:102E700060B9002301A9074801930393FFF7B2FA51
:102E800008B1FFF71BFF05B05DF804FBFFF716FF65
:102E9000EFE700BFF80000200010004002680E4B72
:102EA0009A4200D0704703F5003300B5DA6942F06A
:102EB0001002DA61DB6983B0002203F01003019392
:102EC00011463620019BFEF7EFFB3620FEF722FC71
:102ED00003B05DF804FB00BF001000400C4B0D4A2E
:102EE00010B50C211A604FF41644002218465C609D
:102EF00059619A60DA601A619A61DA611A625A62FB
:102F0000FFF7F4FA00B910BDBDE81040FFF7D6BED8
:102F1000380100200044004070B50168184A88B0AC
:102F2000002391420493039305930693079301D0E2
:102F300008B070BD03F1804303F5043303A9DA69D7
:102F400042F40032DA61DA6902F400320192019A45
:102F50005A6942F400325A615B6903F40033029308
:102F60000322072348F2040502244FF09040029EFA
:102F70000395049406920793FEF7F2FB08B070BD28
:102F800000440040DFF834D0002103E00C4B5B58D4
:102F9000435004310B480C4B42189A42F6D30B4A6B
:102FA00002E0002342F8043B094B9A42F9D3FFF7B1
:102FB00017FF00F017F8FFF737FDFEE7003000209D
:102FC0007441000800000020700000207000002004
:102FD000AC010020FEE70000014B1868704700BFFD
:102FE0000C00002070B50D4E0D4CA41BA410002544
:102FF000A54209D10B4E0C4C00F070FFA41BA4108D
:103000000025A54205D170BD56F8253098470135F9
:10301000EEE756F8253098470135F2E76C41000895
:103020006C4100086C4100087041000802440346EE
:10303000934200D1704703F8011BF9E70FB40A4B24
:1030400013B51C6824B1A36913B9204600F04EF8EB
:1030500005AB049AA1680193204600F059F902B02B
:10306000BDE8104004B070470C000020014900F09A
:10307000A9B800BFE53B0008002310B50446036073
:103080004360836081814366C281036143618361E0
:10309000194608225C30FFF7C9FF054B6362054BF8
:1030A000A362054BE362054B2462236310BD00BF9E
:1030B00089380008AB380008E338000807390008F1
:1030C00070B54A1E682555430E4605F1740100F09F
:1030D00097F8044640B1002180E842000C30A0601F
:1030E00005F16802FFF7A2FF204670BD836910B5A5
:1030F000044633BB8364C3640365124B124A1B68E6
:103100008262984204BF0123836100F01FF860606F
:10311000204600F01BF8A060204600F017F80022BF
:10312000E06004216068FFF7A7FF01220921A06881
:10313000FFF7A2FF02221221E068FFF79DFF0123A3
:10314000A36110BDA03F00086D300008F8B51C4B0E
:103150001E68B369074613B93046FFF7C7FF483604
:10316000B4687368013B03D5336833B13668F7E759
:10317000B4F90C506DB16834F4E704213846FFF718
:103180009FFF30600028F1D10C233B6004462046AD
:10319000F8BD4FF6FF73E3810123A38165662560C7
:1031A000A560656025616561A5610822294604F175
:1031B0005C00FFF73BFF6563A563A564E564E6E794
:1031C000A03F00082DE9F8438046894600F14804F5
:1031D000002614B93046BDE8F883A5686768013F4A
:1031E00001D52468F5E7AB89012B07D9B5F90E3075
:1031F000013303D029464046C84706436835EEE709
:1032000070B5CD1C25F0030508350C2D38BF0C25F5
:10321000002D064601DBA94203D90C2333600020B0
:1032200070BD00F08AFD234A1468214691B9224CF2
:1032300023681BB9304600F017FB20602946304652
:1032400000F012FB431C26D10C233360304600F003
:1032500075FDE4E70B685B1B1AD40B2B0FD90B60D1
:10326000CD50CC18304600F069FD04F10B00231D51
:1032700020F00700C31A1BD05A42E25070BD8C42A6
:103280000DBF63684B686360136018BF0C46E9E7C5
:103290000C464968CAE7C41C24F00304A04205D0C8
:1032A000211A304600F0E0FA0130CDD02560D9E790
:1032B00070BD00BFC4000020C80000209368013B1F
:1032C000002B10B4936009DA9469A34202DBCBB2FD
:1032D0000A2B03D15DF8044B00F01ABB1368581C8D
:1032E00010601970C8B25DF8044B7047F8B5064617
:1032F0000F461446D518AC4201D1002007E03A46EB
:1033000014F8011B3046FFF7D9FF431CF3D1F8BD79
:103310002DE9F04F9DB00C4617460393064618B1B1
:1033200083690BB9FFF7E2FE7C4B9C4257D174686E
:10333000A38918075DD52369002B5AD00023099370
:1033400020238DF8293030238DF82A304FF0010BDF
:10335000B846454615F8013B002B55D1B8EB070A96
:103360000BD053463A4621463046FFF7BFFF0130A7
:1033700000F0C480099B5344099398F80030002B57
:1033800000F0BC8000234FF0FF32049307930592B6
:1033900006938DF853301A93052229786048FCF77C
:1033A00017FF05F10108049B002831D1D90644BF5D
:1033B00020228DF853201A0744BF2B228DF853206A
:1033C0002A782A2A2CD0079A00210A20A8460135FB
:1033D00098F80030303B092B6DD971B326E0514B82
:1033E0009C4201D1B468A3E74F4B9C4208BFF468EC
:1033F0009EE72146304600F0EFFA00289ED04FF0BD
:10340000FF301DB0BDE8F08F252BA7D0A846A0E760
:10341000434A801A0BFA00F0184304904546BBE774
:10342000039A111D12680391002A01DB079204E040
:10343000524243F002030792049398F800302E2B77
:1034400010D198F801302A2B08F1010137D1039BE4
:103450001A1D1B680392002BB8BF4FF0FF3308F111
:1034600002080593314D98F8001003222846FCF716
:10347000AFFE40B14023401B03FA00F0049B03431E
:10348000049308F1010898F8001029488DF82810D5
:10349000062208F10107FCF79BFE002834D0254BDB
:1034A00003BB039B073323F0070308330393099BF4
:1034B0004B4409934CE700FB0232012186E70023CD
:1034C000059318460A258846013198F80020303ABD
:1034D000092A03D9002BC5D00590C3E705FB0020BE
:1034E0000123F0E703AB00932246134B04A93046B7
:1034F000AFF30080B0F1FF3F8146D8D1A3895B06CE
:103500003FF57DAF09987CE703AB009322460A4B59
:1035100004A9304600F088F8ECE700BFC43F00087B
:1035200004400008E43F0008A43F00080A400008E7
:103530000E40000800000000ED3200082DE9F047C1
:1035400091461F468A680B69DDF820809342B8BF18
:103550001346C9F8003091F8432006460C4612B1D4
:103560000133C9F800302368990642BFD9F800300A
:103570000233C9F80030256815F0060507D104F1BB
:10358000190AE368D9F800209B1A9D4229DB94F8B8
:1035900043302268003318BF012392062ED404F171
:1035A000430239463046C047013021D02368E568E0
:1035B000D9F8002003F00603042B08BFAD1AA36856
:1035C00022690CBF25EAE57500259342C4BF9B1A0A
:1035D000ED184FF000091A344D451BD10020BDE80D
:1035E000F0870123524639463046C047013003D1A7
:1035F0004FF0FF30BDE8F0870135C2E7E1185A1CF3
:10360000302081F84300224494F8451082F843109A
:103610000233C4E70123224639463046C047013011
:10362000E6D009F10109D7E72DE9F04317460A7EF4
:1036300085B06E2A984606460C460C9B01F1430E57
:1036400000F0BC801AD8632A2ED00AD8002A00F0D5
:10365000C880582A00F08A8004F1420584F842208C
:103660002AE0642A01D0692AF6D121681A6811F08B
:10367000800F23D0111D1960136827E0732A00F012
:10368000B48008D86F2A2AD0702AE5D10A6842F09F
:1036900020020A6003E0752A21D0782ADCD1782242
:1036A00084F845206E4964E01A6801F14205111D55
:1036B0001960136884F842300123A3E011F0400F31
:1036C00002F104011960D7D0B2F90030002B03DAFF
:1036D0002D225B4284F8432062490A2217E02068C9
:1036E000196810F0800F03D0081D18600B6806E001
:1036F00010F0400F01F104001860F7D00B88594911
:103700006F2A14BF0A220822002084F8430065684B
:10371000A560002DC0F29C80206820F0040020608D
:10372000002B3FD1002D40F095807546082A0BD123
:103730002368DA0708D5236962689A42DEBF30231E
:1037400005F8013C05F1FF35AEEB05032361CDF82B
:1037500000803B4603AA21463046FFF7EFFE0130CA
:1037600055D14FF0FF3005B0BDE8F08381F845201A
:103770003C492268186812F0800F00F104051D60B2
:1037800001D0036802E05506FBD50388D00744BF8B
:1037900042F0200222601BB9226822F0200222603F
:1037A0001022B1E77546B3FBF2F002FB1033CB5C9D
:1037B00005F8013D03460028F5D1B7E708681A6807
:1037C000496910F0800F04D0101D1860136819604B
:1037D00007E010F0400F02F1040018601368F6D003
:1037E0001980002323617546B1E71A68111D19601D
:1037F0001568626800212846FCF7EAFC08B1401B06
:10380000606063682361002384F843309FE7236985
:103810002A4639463046C0470130A2D023689B076C
:1038200007D5002504F11909E368039A9B1A9D4204
:1038300005DBE068039B9842B8BF184693E7012375
:103840004A4639463046C04701308AD00135EBE759
:10385000002BA7D10B7884F8423004F1420565E7CC
:10386000264000081540000838B5064C00230546E0
:1038700008462360FFF78CFA431C02D1236803B18A
:103880002B6038BDA801002010B50C46B1F90E1010
:1038900000F0A4FA0028ABBF636DA3891B1823F4C2
:1038A0008053ACBF6365A38110BD2DE9F0411F4675
:1038B0008B89DB0505460C46164605D502230022FA
:1038C000B1F90E1000F0B8F9A389B4F90E1023F481
:1038D0008053A38132463B462846BDE8F04100F0C4
:1038E00069B810B50C46B1F90E1000F0A5F9431CEB
:1038F000A38915BF606523F4805343F48053A381EB
:1039000018BFA38110BDB1F90E1000F0D3B80000AC
:10391000F8B50E461446054618B183690BB9FFF792
:10392000E5FB214B9C422AD16C68A369A360A38963
:103930001A072ED5236963B323692068C01A636907
:10394000F6B29842374604DB2146284600F04AF991
:1039500028BBA368013BA36023685A1C22601E7029
:1039600063690130984204D0A389DB0719D50A2E78
:1039700017D12146284600F035F990B10FE00B4BE6
:103980009C4201D1AC68D0E7094B9C4208BFEC686F
:10399000CBE72146284600F01FF80028CCD04FF096
:1039A000FF373846F8BD00BFC43F0008E43F0008B9
:1039B000A43F000838B5074C0546084611460022CA
:1039C00022601A46FFF7D6F9431C02D1236803B1DF
:1039D0002B6038BDA8010020324B70B51D6806462B
:1039E0000C4625B1AB6913B92846FFF77FFB2E4B78
:1039F0009C420FD16C68B4F90C309AB215072CD4E4
:103A0000D00611D40922326043F04003A3814FF065
:103A1000FF3070BD254B9C4201D1AC68EBE7244BD5
:103A20009C4208BFEC68E6E7510712D5616B41B1D3
:103A300004F14403994202D0304600F081F900239A
:103A40006363A38923F02403A381002363602369B4
:103A50002360A38943F00803A38123694BB9A38999
:103A600003F42073B3F5007F03D02146304600F005
:103A700019F9A28912F001030CD00023A360636935
:103A80005B42A361236953B9B4F90C3013F0800091
:103A9000BAD170BD920758BF6369A360F2E70020F6
:103AA000F7E700BF0C000020C43F0008E43F000817
:103AB000A43F000838B5064C00230546084623609D
:103AC000FFF780F9431C02D1236803B12B6038BD96
:103AD000A80100208A892DE9F041054610070C460F
:103AE0005AD44B68002B05DC0B6C002B02DC002049
:103AF000BDE8F081E66A002EF9D0002312F480526E
:103B00002F682B6033D0606DA3895A0705D5636891
:103B1000C01A636B0BB1236CC01A00230246E66A1D
:103B2000216A2846B047431CA38906D129681D296C
:103B30004BD82B4ACA40D60747D500226260D90429
:103B40002269226004D5421C01D12B6803B960654B
:103B5000616B2F600029CAD004F14403994202D05E
:103B6000284600F0EDF800206063BDE8F081216A8E
:103B700001232846B047411CC6D12B68002BC3D077
:103B80001D2B01D0162B01D12F60B0E7A38943F084
:103B90004003A381BDE8F0810F69002FA7D09307F0
:103BA0000E6808BF4B690F6018BF0023A6EB07081B
:103BB0008B60B8F1000F9ADD43463A46216AA66A47
:103BC0002846B047002807DCA38943F04003A381BF
:103BD0004FF0FF30BDE8F0810744A8EB0008E8E7AC
:103BE0000100402038B50B6905460C46DBB118B121
:103BF00083690BB9FFF77AFA0C4B9C4209D16C68C8
:103C0000B4F90C307BB121462846BDE83840FFF7B7
:103C100061BF074B9C4201D1AC68F1E7054B9C4268
:103C200008BFEC68ECE7002038BD00BFC43F0008C7
:103C3000E43F0008A43F000838B5074C0546084695
:103C40001146002222601A46FFF7C8F8431C02D131
:103C5000236803B12B6038BDA801002070B50E4663
:103C6000B1F90E10002990B014461D4607DA002362
:103C70002B60B3891A0610D44FF480630EE001AABA
:103C800000F0BEF80028F2DB029A02F47042A2F5BE
:103C900000535A425A412A60EEE740230020236035
:103CA00010B070BD8B8973B59D0706460C4607D5CD
:103CB00004F14703236023610123636102B070BDF7
:103CC00001AB6A46FFF7CAFF009905463046FFF789
:103CD00097FA48B9B4F90C309A05EFD423F00303EE
:103CE00043F00203A381E3E70D4BB362A389206095
:103CF00043F08003A381009B6361019B20615BB162
:103D0000B4F90E10304600F08DF828B1A38923F0E5
:103D1000030343F00103A381A3891D43A581CDE7DC
:103D20006D30000810B5431E0A44914200D110BD09
:103D300011F8014B03F8014FF7E770477047000097
:103D400038B50546002945D051F8043C0C1F002B1E
:103D5000B8BFE418FFF7F1FF1F4A1368104633B9E4
:103D6000636014602846BDE83840FFF7E7BFA34210
:103D70000CD921686218934204BF1A685B686360BB
:103D800004BF521822600460ECE713465A680AB177
:103D9000A242FAD919685818A0420BD120680144F0
:103DA000581882421960DDD1106852685A60014487
:103DB0001960D7E702D90C232B60D3E720682118BC
:103DC0008A4204BF11685268626004BF091821600A
:103DD0005C60C7E738BD00BFC400002038B5074CA1
:103DE000054608461146002222601A46FEF7B4FF37
:103DF000431C02D1236803B12B6038BDA801002009
:103E000038B5074C00230546084611462360FEF7E7
:103E1000DDFF431C02D1236803B12B6038BD00BF16
:103E2000A801002038B5064C00230546084623604B
:103E3000FEF7D2FF431C02D1236803B12B6038BDCB
:103E4000A801002008B5062000F02CF80120FEF79C
:103E50007DFF1F2938B504460D4604D9162303609B
:103E60004FF0FF3038BD426C12B152F821304BB9DF
:103E7000204600F031F82A4601462046BDE8384089
:103E800000F018B8012B0AD0591C03D11623036087
:103E9000012038BD002442F82540284698470020DC
:103EA00038BD0000024B01461868FFF7D2BF00BFC3
:103EB0000C00002038B5074C002305460846114683
:103EC0002360FEF73BFF431C02D1236803B12B6044
:103ED00038BD00BFA8010020FEF72EBFF8B500BF17
:103EE000F8BC08BC9E467047F8B500BFF8BC08BCDB
:043EF0009E46704733
:103EF40002030405060708090A0B0C0D0E0F101027
:103F04000102030405060708090A0B0C0D0E0F1025
:103F14000004080266696C74657220636F6E6669DA
:103F240067206572726F722100000000737461660D
:103F340066206572726F7200666F726D20657272B0
:103F44006F72000041434B206572726F7200000073
:103F5400626974207265636573736976652065723E
:103F6400726F720062697420646F6D696E616E7441
:103F7400206572726F720000435243206572726F43
:103F840072000000000000000000000001020304B1
:103F940006070809000000000102030410000020C5
:103FA400000000000000000000000000000000000D
:103FB40000000000000000000000000000000000FD
:103FC40000000000000000000000000000000000ED
:103FD40000000000000000000000000000000000DD
:103FE40000000000000000000000000000000000CD
:103FF40000000000000000000000000000000000BD
:10400400232D302B2000686C4C00656667454647BD
:104014000030313233343536373839414243444540
:1040240046003031323334353637383961626364AF
:0440340065660000BD
:1040380008B10181B0B000840000000008B101811E
:10404800B0B00084000000001BB20181B0AE81C98D
:104058000000000008B10181B0B000840000000039
:0C40680008B10181B0B00084000000002D
:10407400FCC1FF7F0100000090C2FF7FB0A9028055
:1040840028C3FF7FB0B0A88078C3FF7F0100000081
:1040940084C3FF7FB0B0AA80BCC3FF7FAE71B2807F
:1040A4008CC4FF7F0100000088C4FF7FAB3F3880D1
:1040B400E0C4FF7F01000000ECC4FF7FB0B0AA8021
:1040C40028C5FF7F01000000DCC5FF7FAB0EB28076
:1040D40044C6FF7FB0AF0A800CC9FF7F0100000017
:1040E40010C9FF7FAB3F048050CBFF7F010000006D
:1040F4002CCDFF7F0084048040CDFF7F01000000B1
:104104003CCDFF7FB0AD048004D0FF7FB0A8038016
:1041140024D0FF7F44FFFF7F28D0FF7F48FFFF7F2D
:1041240034D0FF7F0100000018E6FF7FB0B0A88004
:1041340038E6FF7FB0B0AC80F4E6FF7FF8FEFF7F87
:1041440018E7FF7FFCFEFF7F34E7FF7F01000000DC
:1041540090E8FF7FB0A80F80CCE8FF7FF0FEFF7FE0
:0841640058EBFF7F0100000091
:04416C00B501000891
:0441700091010008B1
:10417400010000001000000000127A00100000206E
:1041840000000000C43F0008E43F0008A43F00080A
:10419400000000000000000000000000000000001B
:1041A400000000000000000000000000000000000B
:1041B40000000000000000000000000000000000FB
:1041C40000000000000000000000000000000000EB
:1041D40000000000000000000000000000000000DB
:0400000508002F853B
:00000001FF
